{
  "contractName": "ProofOfExistence3",
  "abi": [
    {
      "constant": true,
      "inputs": [],
      "name": "totalRecords",
      "outputs": [
        {
          "name": "",
          "type": "uint256"
        }
      ],
      "payable": false,
      "stateMutability": "view",
      "type": "function",
      "signature": "0x125f8974"
    },
    {
      "constant": true,
      "inputs": [],
      "name": "owner",
      "outputs": [
        {
          "name": "",
          "type": "address"
        }
      ],
      "payable": false,
      "stateMutability": "view",
      "type": "function",
      "signature": "0x8da5cb5b"
    },
    {
      "inputs": [],
      "payable": false,
      "stateMutability": "nonpayable",
      "type": "constructor",
      "signature": "constructor"
    },
    {
      "anonymous": false,
      "inputs": [
        {
          "indexed": true,
          "name": "id",
          "type": "uint256"
        },
        {
          "indexed": false,
          "name": "documentHash",
          "type": "bytes32"
        }
      ],
      "name": "ProofCreated",
      "type": "event",
      "signature": "0xfbbf8dad2632e75bc114426ca0d629c0beb6c4531599e68d148c70fbb4ffae6f"
    },
    {
      "constant": false,
      "inputs": [
        {
          "name": "id",
          "type": "uint256"
        },
        {
          "name": "documentHash",
          "type": "bytes32"
        }
      ],
      "name": "notarizeHash",
      "outputs": [],
      "payable": false,
      "stateMutability": "nonpayable",
      "type": "function",
      "signature": "0x15ca41c3"
    },
    {
      "constant": true,
      "inputs": [
        {
          "name": "id",
          "type": "uint256"
        },
        {
          "name": "documentHash",
          "type": "bytes32"
        }
      ],
      "name": "doesProofExist",
      "outputs": [
        {
          "name": "",
          "type": "bool"
        }
      ],
      "payable": false,
      "stateMutability": "view",
      "type": "function",
      "signature": "0xaf519bf5"
    },
    {
      "constant": true,
      "inputs": [],
      "name": "getAllProofs",
      "outputs": [
        {
          "name": "",
          "type": "bytes32[]"
        }
      ],
      "payable": false,
      "stateMutability": "view",
      "type": "function",
      "signature": "0x54d7ba3f"
    }
  ],
  "bytecode": "0x608060405234801561001057600080fd5b5033600160006101000a81548173ffffffffffffffffffffffffffffffffffffffff021916908373ffffffffffffffffffffffffffffffffffffffff1602179055506104de806100616000396000f3fe60806040526004361061006d576000357c0100000000000000000000000000000000000000000000000000000000900463ffffffff168063125f89741461007257806315ca41c31461009d57806354d7ba3f146100e25780638da5cb5b1461014e578063af519bf5146101a5575b600080fd5b34801561007e57600080fd5b50610087610202565b6040518082815260200191505060405180910390f35b3480156100a957600080fd5b506100e0600480360360408110156100c057600080fd5b810190808035906020019092919080359060200190929190505050610208565b005b3480156100ee57600080fd5b506100f76103e0565b6040518080602001828103825283818151815260200191508051906020019060200280838360005b8381101561013a57808201518184015260208101905061011f565b505050509050019250505060405180910390f35b34801561015a57600080fd5b5061016361046c565b604051808273ffffffffffffffffffffffffffffffffffffffff1673ffffffffffffffffffffffffffffffffffffffff16815260200191505060405180910390f35b3480156101b157600080fd5b506101e8600480360360408110156101c857600080fd5b810190808035906020019092919080359060200190929190505050610492565b604051808215151515815260200191505060405180910390f35b60005481565b600160009054906101000a900473ffffffffffffffffffffffffffffffffffffffff1673ffffffffffffffffffffffffffffffffffffffff163373ffffffffffffffffffffffffffffffffffffffff161415156102f3576040517f08c379a00000000000000000000000000000000000000000000000000000000081526004018080602001828103825260328152602001807f4f6e6c7920746865206f776e657220697320616c6c6f77656420746f2061636381526020017f65737320746869732066756e6374696f6e2e000000000000000000000000000081525060400191505060405180910390fd5b816000600260008381526020019081526020016000205414151561037f576040517f08c379a000000000000000000000000000000000000000000000000000000000815260040180806020018281038252601b8152602001807f4e6f20686173682065786973747320666f7220746869732069642e000000000081525060200191505060405180910390fd5b816002600085815260200190815260200160002081905550600160005401600081905550827ffbbf8dad2632e75bc114426ca0d629c0beb6c4531599e68d148c70fbb4ffae6f836040518082815260200191505060405180910390a2505050565b6060806000546040519080825280602002602001820160405280156104145781602001602082028038833980820191505090505b50905060008090505b600054811015610464576002600082815260200190815260200160002054828281518110151561044957fe5b9060200190602002018181525050808060010191505061041d565b508091505090565b600160009054906101000a900473ffffffffffffffffffffffffffffffffffffffff1681565b60008160026000858152602001908152602001600020541490509291505056fea165627a7a72305820cccff8c2d339c02a157f98fe1a80a6206e13d72c53922c4fd18d674d7698dc7f0029",
  "source": "pragma solidity ^0.5.0;\n\ncontract ProofOfExistence3 {\n    \n    event ProofCreated(\n        uint256 indexed id,\n        bytes32 documentHash\n    );\n    uint public totalRecords;\n\n    address public owner;\n  \n    mapping (uint256 => bytes32) hashesById;\n\n    modifier onlyOwner() {\n        require(msg.sender == owner, \"Only the owner is allowed to access this function.\");\n        _;\n    }\n\n    modifier noHashExistsYet(uint256 id) {\n        require(hashesById[id] == \"\", \"No hash exists for this id.\");\n        _;\n    }\n\n    constructor() public {\n        owner = msg.sender;\n    }\n\n    function notarizeHash(uint256 id, bytes32 documentHash) public onlyOwner noHashExistsYet(id) {\n        hashesById[id] = documentHash;\n\ttotalRecords = totalRecords+1;\n\n        emit ProofCreated(id, documentHash);\n    }\n\n    function doesProofExist(uint256 id, bytes32 documentHash) public view returns (bool) {\n        return hashesById[id] == documentHash;\n    }\n\n    function getAllProofs() public view returns (bytes32[] memory) {\n    \tbytes32[] memory ret = new bytes32[](totalRecords);\n    \tfor (uint i = 0; i < totalRecords; i++) {\n        \tret[i] = hashesById[i];\n    \t}\n    return ret;\n    }\n}\n",
  "sourcePath": "/home/kartikeya/Ethereum/Ethereum/Consensys/proof-of-existence/contracts/ProofOfExistence3.sol",
  "compiler": {
    "name": "solc",
    "version": "0.5.0+commit.1d4f565a.Emscripten.clang"
  },
  "schemaVersion": "3.0.1",
  "updatedAt": "2019-08-27T03:11:02.965Z",
  "devdoc": {
    "methods": {}
  },
  "userdoc": {
    "methods": {}
  }
}