{
  "contractName": "ProofOfExistence2",
  "abi": [
    {
      "constant": true,
      "inputs": [
        {
          "name": "",
          "type": "uint256"
        }
      ],
      "name": "proofs",
      "outputs": [
        {
          "name": "",
          "type": "bytes32"
        }
      ],
      "payable": false,
      "stateMutability": "view",
      "type": "function",
      "signature": "0x9ddaf5aa"
    },
    {
      "constant": false,
      "inputs": [
        {
          "name": "document",
          "type": "string"
        }
      ],
      "name": "notarize",
      "outputs": [],
      "payable": false,
      "stateMutability": "nonpayable",
      "type": "function",
      "signature": "0x7183616c"
    },
    {
      "constant": true,
      "inputs": [
        {
          "name": "document",
          "type": "string"
        }
      ],
      "name": "proofFor",
      "outputs": [
        {
          "name": "",
          "type": "bytes32"
        }
      ],
      "payable": false,
      "stateMutability": "pure",
      "type": "function",
      "signature": "0xf6c1acdf"
    },
    {
      "constant": true,
      "inputs": [
        {
          "name": "document",
          "type": "string"
        }
      ],
      "name": "checkDocument",
      "outputs": [
        {
          "name": "",
          "type": "bool"
        }
      ],
      "payable": false,
      "stateMutability": "view",
      "type": "function",
      "signature": "0x53fb9233"
    }
  ],
  "bytecode": "0x608060405234801561001057600080fd5b50610535806100206000396000f3fe608060405260043610610062576000357c0100000000000000000000000000000000000000000000000000000000900463ffffffff16806353fb9233146100675780637183616c146101475780639ddaf5aa1461020f578063f6c1acdf1461025e575b600080fd5b34801561007357600080fd5b5061012d6004803603602081101561008a57600080fd5b81019080803590602001906401000000008111156100a757600080fd5b8201836020820111156100b957600080fd5b803590602001918460018302840111640100000000831117156100db57600080fd5b91908080601f016020809104026020016040519081016040528093929190818152602001838380828437600081840152601f19601f82011690508083019250505050505050919291929050505061033a565b604051808215151515815260200191505060405180910390f35b34801561015357600080fd5b5061020d6004803603602081101561016a57600080fd5b810190808035906020019064010000000081111561018757600080fd5b82018360208201111561019957600080fd5b803590602001918460018302840111640100000000831117156101bb57600080fd5b91908080601f016020809104026020016040519081016040528093929190818152602001838380828437600081840152601f19601f82011690508083019250505050505050919291929050505061039a565b005b34801561021b57600080fd5b506102486004803603602081101561023257600080fd5b81019080803590602001909291905050506103d1565b6040518082815260200191505060405180910390f35b34801561026a57600080fd5b506103246004803603602081101561028157600080fd5b810190808035906020019064010000000081111561029e57600080fd5b8201836020820111156102b057600080fd5b803590602001918460018302840111640100000000831117156102d257600080fd5b91908080601f016020809104026020016040519081016040528093929190818152602001838380828437600081840152601f19601f8201169050808301925050505050505091929192905050506103f4565b6040518082815260200191505060405180910390f35b600080600090505b60008054905081101561038f57610358836103f4565b60008281548110151561036757fe5b90600052602060002001541415610382576001915050610395565b8080600101915050610342565b50600090505b919050565b60006103a5826103f4565b908060018154018082558091505090600182039060005260206000200160009091929091909150555050565b6000818154811015156103e057fe5b906000526020600020016000915090505481565b60006002826040516020018082805190602001908083835b602083101515610431578051825260208201915060208101905060208303925061040c565b6001836020036101000a0380198251168184511680821785525050505050509050019150506040516020818303038152906040526040518082805190602001908083835b60208310151561049a5780518252602082019150602081019050602083039250610475565b6001836020036101000a038019825116818451168082178552505050505050905001915050602060405180830381855afa1580156104dc573d6000803e3d6000fd5b5050506040513d60208110156104f157600080fd5b8101908080519060200190929190505050905091905056fea165627a7a7230582055dca7aae3013a661bef75a5c45177c977a660553eb23cce78143f081ecb81450029",
  "source": "pragma solidity ^0.5.0 ;\n\ncontract ProofOfExistence2 {\n\nbytes32 [] public proofs;\n\nfunction notarize ( string memory document) public \n{\n\tproofs.push(proofFor(document));\n}\n\nfunction proofFor( string memory document) pure public returns (bytes32 ) {\n\treturn sha256(abi.encodePacked(document));\n}\n\n\nfunction checkDocument (string memory document) view public returns (bool) {\n\tfor (uint256 i = 0 ; i<proofs.length; i ++)\n\t{\t \n\t\tif(proofs[i] == proofFor(document))\n\t\treturn true;\n\t}\n\treturn false;\n}\n}\n",
  "sourcePath": "/home/kartikeya/Ethereum/Ethereum/Consensys/proof-of-existence/contracts/ProofOfExistence2.sol",
  "compiler": {
    "name": "solc",
    "version": "0.5.0+commit.1d4f565a.Emscripten.clang"
  },
  "schemaVersion": "3.0.1",
  "updatedAt": "2019-08-27T03:11:02.836Z",
  "devdoc": {
    "methods": {}
  },
  "userdoc": {
    "methods": {}
  }
}